{
  "contractName": "CrowdFunding",
  "abi": [
    {
      "constant": true,
      "inputs": [],
      "name": "name",
      "outputs": [
        {
          "name": "",
          "type": "string"
        }
      ],
      "payable": false,
      "stateMutability": "view",
      "type": "function"
    },
    {
      "constant": true,
      "inputs": [],
      "name": "beneficiary",
      "outputs": [
        {
          "name": "",
          "type": "address"
        }
      ],
      "payable": false,
      "stateMutability": "view",
      "type": "function"
    },
    {
      "constant": true,
      "inputs": [
        {
          "name": "",
          "type": "address"
        }
      ],
      "name": "amounts",
      "outputs": [
        {
          "name": "",
          "type": "uint256"
        }
      ],
      "payable": false,
      "stateMutability": "view",
      "type": "function"
    },
    {
      "constant": true,
      "inputs": [],
      "name": "fundingDeadline",
      "outputs": [
        {
          "name": "",
          "type": "uint256"
        }
      ],
      "payable": false,
      "stateMutability": "view",
      "type": "function"
    },
    {
      "constant": true,
      "inputs": [],
      "name": "collected",
      "outputs": [
        {
          "name": "",
          "type": "bool"
        }
      ],
      "payable": false,
      "stateMutability": "view",
      "type": "function"
    },
    {
      "constant": true,
      "inputs": [],
      "name": "check",
      "outputs": [
        {
          "name": "",
          "type": "string"
        }
      ],
      "payable": false,
      "stateMutability": "view",
      "type": "function"
    },
    {
      "constant": true,
      "inputs": [],
      "name": "targetAmount",
      "outputs": [
        {
          "name": "",
          "type": "uint256"
        }
      ],
      "payable": false,
      "stateMutability": "view",
      "type": "function"
    },
    {
      "constant": true,
      "inputs": [],
      "name": "state",
      "outputs": [
        {
          "name": "",
          "type": "uint8"
        }
      ],
      "payable": false,
      "stateMutability": "view",
      "type": "function"
    },
    {
      "inputs": [
        {
          "name": "contractName",
          "type": "string"
        },
        {
          "name": "targetAmountEth",
          "type": "uint256"
        },
        {
          "name": "durationInMin",
          "type": "uint256"
        },
        {
          "name": "ben",
          "type": "address"
        }
      ],
      "payable": false,
      "stateMutability": "nonpayable",
      "type": "constructor"
    },
    {
      "anonymous": false,
      "inputs": [
        {
          "indexed": false,
          "name": "addr",
          "type": "address"
        },
        {
          "indexed": false,
          "name": "totalCollected",
          "type": "uint256"
        },
        {
          "indexed": false,
          "name": "succesful",
          "type": "bool"
        }
      ],
      "name": "campaignEvent",
      "type": "event"
    },
    {
      "constant": false,
      "inputs": [],
      "name": "finishCrowdFunding",
      "outputs": [],
      "payable": false,
      "stateMutability": "nonpayable",
      "type": "function"
    },
    {
      "constant": false,
      "inputs": [],
      "name": "collect",
      "outputs": [],
      "payable": false,
      "stateMutability": "nonpayable",
      "type": "function"
    },
    {
      "constant": false,
      "inputs": [],
      "name": "withdraw",
      "outputs": [],
      "payable": false,
      "stateMutability": "nonpayable",
      "type": "function"
    },
    {
      "constant": false,
      "inputs": [],
      "name": "contribute",
      "outputs": [],
      "payable": true,
      "stateMutability": "payable",
      "type": "function"
    },
    {
      "constant": true,
      "inputs": [],
      "name": "beforeDeadline",
      "outputs": [
        {
          "name": "",
          "type": "bool"
        }
      ],
      "payable": false,
      "stateMutability": "view",
      "type": "function"
    }
  ],
  "bytecode": "0x60806040523480156200001157600080fd5b50604051620011a2380380620011a28339810180604052810190808051820192919060200180519060200190929190805190602001909291908051906020019092919050505083600090805190602001906200006f929190620002d1565b5073__Utils_________________________________63d8916bb9846040518263ffffffff167c01000000000000000000000000000000000000000000000000000000000281526004018082815260200191505060206040518083038186803b158015620000dc57600080fd5b505af4158015620000f1573d6000803e3d6000fd5b505050506040513d60208110156200010857600080fd5b810190808051906020019092919050505060018190555073__Utils_________________________________63cd6fb042836040518263ffffffff167c01000000000000000000000000000000000000000000000000000000000281526004018082815260200191505060206040518083038186803b1580156200018b57600080fd5b505af4158015620001a0573d6000803e3d6000fd5b505050506040513d6020811015620001b757600080fd5b8101908080519060200190929190505050620001e1620002c9640100000000026401000000009004565b0160028190555080600360006101000a81548173ffffffffffffffffffffffffffffffffffffffff021916908373ffffffffffffffffffffffffffffffffffffffff1602179055506000600360146101000a81548160ff021916908360038111156200024957fe5b02179055506000600560006101000a81548160ff0219169083151502179055506040805190810160405280600781526020017f756e636865636b0000000000000000000000000000000000000000000000000081525060079080519060200190620002b6929190620002d1565b5060006006819055505050505062000380565b600042905090565b828054600181600116156101000203166002900490600052602060002090601f016020900481019282601f106200031457805160ff191683800117855562000345565b8280016001018555821562000345579182015b828111156200034457825182559160200191906001019062000327565b5b50905062000354919062000358565b5090565b6200037d91905b80821115620003795760008160009055506001016200035f565b5090565b90565b610e1280620003906000396000f3006080604052600436106100c5576000357c0100000000000000000000000000000000000000000000000000000000900463ffffffff16806306fdde03146100ca578063083dca111461015a57806338af3eed146101715780633ccfd60b146101c857806355a3b2c1146101df57806368bc004114610236578063796b23bb1461026557806384bcefd414610290578063919840ad146102bf578063953b8fb81461034f578063c19d93fb1461037a578063d7bb99ba146103b3578063e5225381146103bd575b600080fd5b3480156100d657600080fd5b506100df6103d4565b6040518080602001828103825283818151815260200191508051906020019080838360005b8381101561011f578082015181840152602081019050610104565b50505050905090810190601f16801561014c5780820380516001836020036101000a031916815260200191505b509250505060405180910390f35b34801561016657600080fd5b5061016f610472565b005b34801561017d57600080fd5b5061018661067b565b604051808273ffffffffffffffffffffffffffffffffffffffff1673ffffffffffffffffffffffffffffffffffffffff16815260200191505060405180910390f35b3480156101d457600080fd5b506101dd6106a1565b005b3480156101eb57600080fd5b50610220600480360381019080803573ffffffffffffffffffffffffffffffffffffffff169060200190929190505050610903565b6040518082815260200191505060405180910390f35b34801561024257600080fd5b5061024b61091b565b604051808215151515815260200191505060405180910390f35b34801561027157600080fd5b5061027a61092e565b6040518082815260200191505060405180910390f35b34801561029c57600080fd5b506102a5610934565b604051808215151515815260200191505060405180910390f35b3480156102cb57600080fd5b506102d4610947565b6040518080602001828103825283818151815260200191508051906020019080838360005b838110156103145780820151818401526020810190506102f9565b50505050905090810190601f1680156103415780820380516001836020036101000a031916815260200191505b509250505060405180910390f35b34801561035b57600080fd5b506103646109e5565b6040518082815260200191505060405180910390f35b34801561038657600080fd5b5061038f6109eb565b6040518082600381111561039f57fe5b60ff16815260200191505060405180910390f35b6103bb6109fe565b005b3480156103c957600080fd5b506103d2610bed565b005b60008054600181600116156101000203166002900480601f01602080910402602001604051908101604052809291908181526020018280546001816001161561010002031660029004801561046a5780601f1061043f5761010080835404028352916020019161046a565b820191906000526020600020905b81548152906001019060200180831161044d57829003601f168201915b505050505081565b6000600360149054906101000a900460ff16600381111561048f57fe5b81600381111561049b57fe5b141515610510576040517f08c379a000000000000000000000000000000000000000000000000000000000815260040180806020018281038252600d8152602001807f496e76616c69645374617465210000000000000000000000000000000000000081525060200191505060405180910390fd5b61051861091b565b15151561058d576040517f08c379a000000000000000000000000000000000000000000000000000000000815260040180806020018281038252600c8152602001807f6e6f74206f76657220796574000000000000000000000000000000000000000081525060200191505060405180910390fd5b600560009054906101000a900460ff16156105cb576002600360146101000a81548160ff021916908360038111156105c157fe5b02179055506105f0565b6001600360146101000a81548160ff021916908360038111156105ea57fe5b02179055505b7f04e6d31ad1d0b96a9d15a312aec8253c7ff329ad5d465e3a3570679a9e106db530600654600560009054906101000a900460ff16604051808473ffffffffffffffffffffffffffffffffffffffff1673ffffffffffffffffffffffffffffffffffffffff16815260200183815260200182151515158152602001935050505060405180910390a150565b600360009054906101000a900473ffffffffffffffffffffffffffffffffffffffff1681565b60006001600360149054906101000a900460ff1660038111156106c057fe5b8160038111156106cc57fe5b141515610741576040517f08c379a000000000000000000000000000000000000000000000000000000000815260040180806020018281038252600d8152602001807f496e76616c69645374617465210000000000000000000000000000000000000081525060200191505060405180910390fd5b6000600460003373ffffffffffffffffffffffffffffffffffffffff1673ffffffffffffffffffffffffffffffffffffffff168152602001908152602001600020541115156107f8576040517f08c379a00000000000000000000000000000000000000000000000000000000081526004018080602001828103825260138152602001807f4e6f7468696e6720746f2077697468647261770000000000000000000000000081525060200191505060405180910390fd5b600460003373ffffffffffffffffffffffffffffffffffffffff1673ffffffffffffffffffffffffffffffffffffffff1681526020019081526020016000205491506000600460003373ffffffffffffffffffffffffffffffffffffffff1673ffffffffffffffffffffffffffffffffffffffff168152602001908152602001600020819055503373ffffffffffffffffffffffffffffffffffffffff166108fc839081150290604051600060405180830381858888f1935050505015156108ff5781600460003373ffffffffffffffffffffffffffffffffffffffff1673ffffffffffffffffffffffffffffffffffffffff168152602001908152602001600020819055505b5050565b60046020528060005260406000206000915090505481565b6000600254610928610d39565b10905090565b60025481565b600560009054906101000a900460ff1681565b60078054600181600116156101000203166002900480601f0160208091040260200160405190810160405280929190818152602001828054600181600116156101000203166002900480156109dd5780601f106109b2576101008083540402835291602001916109dd565b820191906000526020600020905b8154815290600101906020018083116109c057829003601f168201915b505050505081565b60015481565b600360149054906101000a900460ff1681565b6000600360149054906101000a900460ff166003811115610a1b57fe5b816003811115610a2757fe5b141515610a9c576040517f08c379a000000000000000000000000000000000000000000000000000000000815260040180806020018281038252600d8152602001807f496e76616c69645374617465210000000000000000000000000000000000000081525060200191505060405180910390fd5b610aa461091b565b1515610b18576040517f08c379a00000000000000000000000000000000000000000000000000000000081526004018080602001828103825260098152602001807f74696d65206f766572000000000000000000000000000000000000000000000081525060200191505060405180910390fd5b34600460003373ffffffffffffffffffffffffffffffffffffffff1673ffffffffffffffffffffffffffffffffffffffff16815260200190815260200160002060008282540192505081905550346006600082825401925050819055506040805190810160405280600581526020017f636865636b00000000000000000000000000000000000000000000000000000081525060079080519060200190610bc0929190610d41565b50600154600654101515610bea576001600560006101000a81548160ff0219169083151502179055505b50565b6002600360149054906101000a900460ff166003811115610c0a57fe5b816003811115610c1657fe5b141515610c8b576040517f08c379a000000000000000000000000000000000000000000000000000000000815260040180806020018281038252600d8152602001807f496e76616c69645374617465210000000000000000000000000000000000000081525060200191505060405180910390fd5b600360009054906101000a900473ffffffffffffffffffffffffffffffffffffffff1673ffffffffffffffffffffffffffffffffffffffff166108fc6006549081150290604051600060405180830381858888f1935050505015610d115760038060146101000a81548160ff02191690836003811115610d0757fe5b0217905550610d36565b6001600360146101000a81548160ff02191690836003811115610d3057fe5b02179055505b50565b600042905090565b828054600181600116156101000203166002900490600052602060002090601f016020900481019282601f10610d8257805160ff1916838001178555610db0565b82800160010185558215610db0579182015b82811115610daf578251825591602001919060010190610d94565b5b509050610dbd9190610dc1565b5090565b610de391905b80821115610ddf576000816000905550600101610dc7565b5090565b905600a165627a7a723058208efc5dddfee45f0f74cff81622773f94317ef06bcce94f2931b1079b087fc2150029",
  "source": "pragma solidity ^0.4.25;\r\nimport \"./Utils.sol\";\r\n\r\ncontract CrowdFunding{\r\n    using Utils for *;\r\n\tenum State{ Ongoing , Failed , Succeeded, PaidOut }\r\n    event campaignEvent(\r\n        address addr,\r\n        uint totalCollected,\r\n        bool succesful\r\n    );\r\n\tstring public name;\r\n\tuint public targetAmount;\r\n\tuint public fundingDeadline;\r\n\taddress public beneficiary;\r\n\tState public state;\r\n\tmapping(address => uint) public amounts;\r\n\tbool public collected;\r\n\tuint totalCollected;\r\n\tstring public check;\r\n\t\r\n\tmodifier inState(State expectedState){\r\n\t    require(expectedState==state,\"InvalidState!\");\r\n\t    _;\r\n\t}\r\n\t\r\n\tmodifier inCollection(){\r\n\t    require(collected==true,\"CrowdFunding completed\");\r\n\t    _;\r\n\t}\r\n\t\r\n\tconstructor(\r\n\t\tstring contractName,\r\n\t\tuint targetAmountEth,\r\n\t\tuint durationInMin,\r\n\t\taddress ben\r\n\t)\r\n\t\tpublic\r\n\t{\r\n\t\t\tname = contractName;\r\n\t\t\ttargetAmount = Utils.etherToWei(targetAmountEth);\r\n\t\t\tfundingDeadline = currentTime() + Utils.minToSec(durationInMin);\r\n\t\t\tbeneficiary = ben;\r\n\t\t\tstate = State.Ongoing;\r\n\t\t\tcollected = false;\r\n\t\t\tcheck = \"uncheck\";\r\n\t\t\ttotalCollected = 0;\r\n\t}\r\n\t\r\n\tfunction finishCrowdFunding() public inState(State.Ongoing){\r\n\t    require(!beforeDeadline(),\"not over yet\");\r\n\t    \r\n\t    if(collected){\r\n\t        state = State.Succeeded;\r\n\t    }else{\r\n\t        state = State.Failed;\r\n\t    }\r\n\t    emit campaignEvent(this,totalCollected,collected);\r\n\t}\r\n\t\r\n\tfunction collect() public inState(State.Succeeded) {\r\n\t    if(beneficiary.send(totalCollected)){\r\n\t        state = State.PaidOut;\r\n\t    }else state =State.Failed ; \r\n\t}\r\n\t\r\n\tfunction withdraw() public inState(State.Failed){\r\n\t    require(amounts[msg.sender]>0,\"Nothing to withdraw\");\r\n\t    uint contributed = amounts[msg.sender];\r\n\t    amounts[msg.sender] = 0;\r\n\t    \r\n\t    if(!msg.sender.send(contributed)){\r\n\t        amounts[msg.sender] = contributed;\r\n\t    }\r\n\t}\r\n\tfunction contribute() public payable inState(State.Ongoing){\r\n\t    require(beforeDeadline(),\"time over\");\r\n\t    amounts[msg.sender] += msg.value;\r\n\t    totalCollected += msg.value;\r\n\t    check = \"check\";\r\n\t    if(totalCollected>=targetAmount) collected = true;\r\n\t}\r\n\t\r\n\tfunction beforeDeadline() public view returns(bool){\r\n\t    return currentTime() <fundingDeadline;\r\n\t}\r\n\t\r\n\tfunction currentTime() internal view returns(uint){\r\n\t    return now;\r\n\t}\r\n}",
  "sourcePath": "C:\\workspace\\solidity\\truff\\contracts\\CrowdFunding.sol",
  "compiler": {
    "name": "solc",
    "version": "0.4.25+commit.59dbf8f1.Emscripten.clang"
  },
  "schemaVersion": "3.0.10",
  "updatedAt": "2019-06-04T19:40:22.308Z",
  "devdoc": {
    "methods": {}
  },
  "userdoc": {
    "methods": {}
  }
}