{
  "contractName": "testCrowdFunding",
  "abi": [
    {
      "constant": true,
      "inputs": [],
      "name": "name",
      "outputs": [
        {
          "name": "",
          "type": "string"
        }
      ],
      "payable": false,
      "stateMutability": "view",
      "type": "function"
    },
    {
      "constant": false,
      "inputs": [],
      "name": "finishCrowdFunding",
      "outputs": [],
      "payable": false,
      "stateMutability": "nonpayable",
      "type": "function"
    },
    {
      "constant": true,
      "inputs": [],
      "name": "beneficiary",
      "outputs": [
        {
          "name": "",
          "type": "address"
        }
      ],
      "payable": false,
      "stateMutability": "view",
      "type": "function"
    },
    {
      "constant": false,
      "inputs": [],
      "name": "withdraw",
      "outputs": [],
      "payable": false,
      "stateMutability": "nonpayable",
      "type": "function"
    },
    {
      "constant": true,
      "inputs": [
        {
          "name": "",
          "type": "address"
        }
      ],
      "name": "amounts",
      "outputs": [
        {
          "name": "",
          "type": "uint256"
        }
      ],
      "payable": false,
      "stateMutability": "view",
      "type": "function"
    },
    {
      "constant": true,
      "inputs": [],
      "name": "beforeDeadline",
      "outputs": [
        {
          "name": "",
          "type": "bool"
        }
      ],
      "payable": false,
      "stateMutability": "view",
      "type": "function"
    },
    {
      "constant": true,
      "inputs": [],
      "name": "fundingDeadline",
      "outputs": [
        {
          "name": "",
          "type": "uint256"
        }
      ],
      "payable": false,
      "stateMutability": "view",
      "type": "function"
    },
    {
      "constant": true,
      "inputs": [],
      "name": "collected",
      "outputs": [
        {
          "name": "",
          "type": "bool"
        }
      ],
      "payable": false,
      "stateMutability": "view",
      "type": "function"
    },
    {
      "constant": true,
      "inputs": [],
      "name": "check",
      "outputs": [
        {
          "name": "",
          "type": "string"
        }
      ],
      "payable": false,
      "stateMutability": "view",
      "type": "function"
    },
    {
      "constant": true,
      "inputs": [],
      "name": "targetAmount",
      "outputs": [
        {
          "name": "",
          "type": "uint256"
        }
      ],
      "payable": false,
      "stateMutability": "view",
      "type": "function"
    },
    {
      "constant": true,
      "inputs": [],
      "name": "state",
      "outputs": [
        {
          "name": "",
          "type": "uint8"
        }
      ],
      "payable": false,
      "stateMutability": "view",
      "type": "function"
    },
    {
      "constant": false,
      "inputs": [],
      "name": "contribute",
      "outputs": [],
      "payable": true,
      "stateMutability": "payable",
      "type": "function"
    },
    {
      "constant": false,
      "inputs": [],
      "name": "collect",
      "outputs": [],
      "payable": false,
      "stateMutability": "nonpayable",
      "type": "function"
    },
    {
      "inputs": [
        {
          "name": "contractName",
          "type": "string"
        },
        {
          "name": "targetAmountEth",
          "type": "uint256"
        },
        {
          "name": "durationInMin",
          "type": "uint256"
        },
        {
          "name": "ben",
          "type": "address"
        }
      ],
      "payable": false,
      "stateMutability": "nonpayable",
      "type": "constructor"
    },
    {
      "anonymous": false,
      "inputs": [
        {
          "indexed": false,
          "name": "addr",
          "type": "address"
        },
        {
          "indexed": false,
          "name": "totalCollected",
          "type": "uint256"
        },
        {
          "indexed": false,
          "name": "succesful",
          "type": "bool"
        }
      ],
      "name": "campaignEvent",
      "type": "event"
    },
    {
      "constant": false,
      "inputs": [
        {
          "name": "_time",
          "type": "uint256"
        }
      ],
      "name": "setCurrentTime",
      "outputs": [],
      "payable": false,
      "stateMutability": "nonpayable",
      "type": "function"
    }
  ],
  "bytecode": "0x60806040523480156200001157600080fd5b50604051620011f0380380620011f08339810180604052810190808051820192919060200180519060200190929190805190602001909291908051906020019092919050505083838383836000908051906020019062000073929190620002db565b5073__Utils_________________________________63d8916bb9846040518263ffffffff167c01000000000000000000000000000000000000000000000000000000000281526004018082815260200191505060206040518083038186803b158015620000e057600080fd5b505af4158015620000f5573d6000803e3d6000fd5b505050506040513d60208110156200010c57600080fd5b810190808051906020019092919050505060018190555073__Utils_________________________________63cd6fb042836040518263ffffffff167c01000000000000000000000000000000000000000000000000000000000281526004018082815260200191505060206040518083038186803b1580156200018f57600080fd5b505af4158015620001a4573d6000803e3d6000fd5b505050506040513d6020811015620001bb57600080fd5b8101908080519060200190929190505050620001e5620002d1640100000000026401000000009004565b0160028190555080600360006101000a81548173ffffffffffffffffffffffffffffffffffffffff021916908373ffffffffffffffffffffffffffffffffffffffff1602179055506000600360146101000a81548160ff021916908360038111156200024d57fe5b02179055506000600560006101000a81548160ff0219169083151502179055506040805190810160405280600781526020017f756e636865636b0000000000000000000000000000000000000000000000000081525060079080519060200190620002ba929190620002db565b50600060068190555050505050505050506200038a565b6000600854905090565b828054600181600116156101000203166002900490600052602060002090601f016020900481019282601f106200031e57805160ff19168380011785556200034f565b828001600101855582156200034f579182015b828111156200034e57825182559160200191906001019062000331565b5b5090506200035e919062000362565b5090565b6200038791905b808211156200038357600081600090555060010162000369565b5090565b90565b610e56806200039a6000396000f3006080604052600436106100d0576000357c0100000000000000000000000000000000000000000000000000000000900463ffffffff16806306fdde03146100d5578063083dca111461016557806322f8e5661461017c57806338af3eed146101a95780633ccfd60b1461020057806355a3b2c11461021757806368bc00411461026e578063796b23bb1461029d57806384bcefd4146102c8578063919840ad146102f7578063953b8fb814610387578063c19d93fb146103b2578063d7bb99ba146103eb578063e5225381146103f5575b600080fd5b3480156100e157600080fd5b506100ea61040c565b6040518080602001828103825283818151815260200191508051906020019080838360005b8381101561012a57808201518184015260208101905061010f565b50505050905090810190601f1680156101575780820380516001836020036101000a031916815260200191505b509250505060405180910390f35b34801561017157600080fd5b5061017a6104aa565b005b34801561018857600080fd5b506101a7600480360381019080803590602001909291905050506106b3565b005b3480156101b557600080fd5b506101be6106bd565b604051808273ffffffffffffffffffffffffffffffffffffffff1673ffffffffffffffffffffffffffffffffffffffff16815260200191505060405180910390f35b34801561020c57600080fd5b506102156106e3565b005b34801561022357600080fd5b50610258600480360381019080803573ffffffffffffffffffffffffffffffffffffffff169060200190929190505050610945565b6040518082815260200191505060405180910390f35b34801561027a57600080fd5b5061028361095d565b604051808215151515815260200191505060405180910390f35b3480156102a957600080fd5b506102b2610970565b6040518082815260200191505060405180910390f35b3480156102d457600080fd5b506102dd610976565b604051808215151515815260200191505060405180910390f35b34801561030357600080fd5b5061030c610989565b6040518080602001828103825283818151815260200191508051906020019080838360005b8381101561034c578082015181840152602081019050610331565b50505050905090810190601f1680156103795780820380516001836020036101000a031916815260200191505b509250505060405180910390f35b34801561039357600080fd5b5061039c610a27565b6040518082815260200191505060405180910390f35b3480156103be57600080fd5b506103c7610a2d565b604051808260038111156103d757fe5b60ff16815260200191505060405180910390f35b6103f3610a40565b005b34801561040157600080fd5b5061040a610c2f565b005b60008054600181600116156101000203166002900480601f0160208091040260200160405190810160405280929190818152602001828054600181600116156101000203166002900480156104a25780601f10610477576101008083540402835291602001916104a2565b820191906000526020600020905b81548152906001019060200180831161048557829003601f168201915b505050505081565b6000600360149054906101000a900460ff1660038111156104c757fe5b8160038111156104d357fe5b141515610548576040517f08c379a000000000000000000000000000000000000000000000000000000000815260040180806020018281038252600d8152602001807f496e76616c69645374617465210000000000000000000000000000000000000081525060200191505060405180910390fd5b61055061095d565b1515156105c5576040517f08c379a000000000000000000000000000000000000000000000000000000000815260040180806020018281038252600c8152602001807f6e6f74206f76657220796574000000000000000000000000000000000000000081525060200191505060405180910390fd5b600560009054906101000a900460ff1615610603576002600360146101000a81548160ff021916908360038111156105f957fe5b0217905550610628565b6001600360146101000a81548160ff0219169083600381111561062257fe5b02179055505b7f04e6d31ad1d0b96a9d15a312aec8253c7ff329ad5d465e3a3570679a9e106db530600654600560009054906101000a900460ff16604051808473ffffffffffffffffffffffffffffffffffffffff1673ffffffffffffffffffffffffffffffffffffffff16815260200183815260200182151515158152602001935050505060405180910390a150565b8060088190555050565b600360009054906101000a900473ffffffffffffffffffffffffffffffffffffffff1681565b60006001600360149054906101000a900460ff16600381111561070257fe5b81600381111561070e57fe5b141515610783576040517f08c379a000000000000000000000000000000000000000000000000000000000815260040180806020018281038252600d8152602001807f496e76616c69645374617465210000000000000000000000000000000000000081525060200191505060405180910390fd5b6000600460003373ffffffffffffffffffffffffffffffffffffffff1673ffffffffffffffffffffffffffffffffffffffff1681526020019081526020016000205411151561083a576040517f08c379a00000000000000000000000000000000000000000000000000000000081526004018080602001828103825260138152602001807f4e6f7468696e6720746f2077697468647261770000000000000000000000000081525060200191505060405180910390fd5b600460003373ffffffffffffffffffffffffffffffffffffffff1673ffffffffffffffffffffffffffffffffffffffff1681526020019081526020016000205491506000600460003373ffffffffffffffffffffffffffffffffffffffff1673ffffffffffffffffffffffffffffffffffffffff168152602001908152602001600020819055503373ffffffffffffffffffffffffffffffffffffffff166108fc839081150290604051600060405180830381858888f1935050505015156109415781600460003373ffffffffffffffffffffffffffffffffffffffff1673ffffffffffffffffffffffffffffffffffffffff168152602001908152602001600020819055505b5050565b60046020528060005260406000206000915090505481565b600060025461096a610d7b565b10905090565b60025481565b600560009054906101000a900460ff1681565b60078054600181600116156101000203166002900480601f016020809104026020016040519081016040528092919081815260200182805460018160011615610100020316600290048015610a1f5780601f106109f457610100808354040283529160200191610a1f565b820191906000526020600020905b815481529060010190602001808311610a0257829003601f168201915b505050505081565b60015481565b600360149054906101000a900460ff1681565b6000600360149054906101000a900460ff166003811115610a5d57fe5b816003811115610a6957fe5b141515610ade576040517f08c379a000000000000000000000000000000000000000000000000000000000815260040180806020018281038252600d8152602001807f496e76616c69645374617465210000000000000000000000000000000000000081525060200191505060405180910390fd5b610ae661095d565b1515610b5a576040517f08c379a00000000000000000000000000000000000000000000000000000000081526004018080602001828103825260098152602001807f74696d65206f766572000000000000000000000000000000000000000000000081525060200191505060405180910390fd5b34600460003373ffffffffffffffffffffffffffffffffffffffff1673ffffffffffffffffffffffffffffffffffffffff16815260200190815260200160002060008282540192505081905550346006600082825401925050819055506040805190810160405280600581526020017f636865636b00000000000000000000000000000000000000000000000000000081525060079080519060200190610c02929190610d85565b50600154600654101515610c2c576001600560006101000a81548160ff0219169083151502179055505b50565b6002600360149054906101000a900460ff166003811115610c4c57fe5b816003811115610c5857fe5b141515610ccd576040517f08c379a000000000000000000000000000000000000000000000000000000000815260040180806020018281038252600d8152602001807f496e76616c69645374617465210000000000000000000000000000000000000081525060200191505060405180910390fd5b600360009054906101000a900473ffffffffffffffffffffffffffffffffffffffff1673ffffffffffffffffffffffffffffffffffffffff166108fc6006549081150290604051600060405180830381858888f1935050505015610d535760038060146101000a81548160ff02191690836003811115610d4957fe5b0217905550610d78565b6001600360146101000a81548160ff02191690836003811115610d7257fe5b02179055505b50565b6000600854905090565b828054600181600116156101000203166002900490600052602060002090601f016020900481019282601f10610dc657805160ff1916838001178555610df4565b82800160010185558215610df4579182015b82811115610df3578251825591602001919060010190610dd8565b5b509050610e019190610e05565b5090565b610e2791905b80821115610e23576000816000905550600101610e0b565b5090565b905600a165627a7a723058200c03aa6271dad414dfc8777c8085582acb13b174792f40759e08a45a24fe9b6a0029",
  "source": "pragma solidity ^0.4.25;\r\nimport \"./CrowdFunding.sol\";\r\n\r\ncontract testCrowdFunding is CrowdFunding{\r\n    \r\n    constructor(\r\n\t\tstring contractName,\r\n\t\tuint targetAmountEth,\r\n\t\tuint durationInMin,\r\n\t\taddress ben\r\n\t)\r\n\t\tpublic CrowdFunding(contractName,targetAmountEth,durationInMin,ben){}\r\n\r\n    uint time;\r\n    \r\n    function currentTime() internal view returns(uint){\r\n\t    return time;\r\n\t}\r\n\t\r\n\tfunction setCurrentTime(uint _time) public{\r\n\t    time = _time;\r\n\t} \r\n}",
  "sourcePath": "C:/workspace/solidity/truff/contracts/testCrowdFunding.sol",
  "compiler": {
    "name": "solc",
    "version": "0.4.25+commit.59dbf8f1.Emscripten.clang"
  },
  "schemaVersion": "3.0.10",
  "updatedAt": "2019-06-04T19:40:21.007Z",
  "devdoc": {
    "methods": {}
  },
  "userdoc": {
    "methods": {}
  }
}