{
  "contractName": "Utils",
  "abi": [
    {
      "constant": true,
      "inputs": [
        {
          "name": "suminEth",
          "type": "uint256"
        }
      ],
      "name": "etherToWei",
      "outputs": [
        {
          "name": "",
          "type": "uint256"
        }
      ],
      "payable": false,
      "stateMutability": "pure",
      "type": "function"
    },
    {
      "constant": true,
      "inputs": [
        {
          "name": "mmin",
          "type": "uint256"
        }
      ],
      "name": "minToSec",
      "outputs": [
        {
          "name": "",
          "type": "uint256"
        }
      ],
      "payable": false,
      "stateMutability": "pure",
      "type": "function"
    }
  ],
  "bytecode": "0x610116610030600b82828239805160001a6073146000811461002057610022565bfe5b5030600052607381538281f30073000000000000000000000000000000000000000030146080604052600436106060576000357c0100000000000000000000000000000000000000000000000000000000900463ffffffff168063cd6fb042146065578063d8916bb9146097575b600080fd5b60816004803603810190808035906020019092919050505060c9565b6040518082815260200191505060405180910390f35b60b36004803603810190808035906020019092919050505060d6565b6040518082815260200191505060405180910390f35b6000603c82029050919050565b6000670de0b6b3a7640000820290509190505600a165627a7a72305820059d34343da0913fe03402cb632c3f71f314fb3c961a5e4f37168cc0bcf8930e0029",
  "source": "pragma solidity ^0.4.25;\r\n\r\nlibrary Utils{\r\n    function etherToWei(uint suminEth) public pure returns(uint){\r\n        return suminEth* 1 ether;\r\n    }\r\n    \r\n    function minToSec(uint mmin) public pure returns(uint){\r\n        return mmin* 1 minutes;\r\n    }\r\n}",
  "sourcePath": "C:\\workspace\\solidity\\truff\\contracts\\Utils.sol",
  "compiler": {
    "name": "solc",
    "version": "0.4.25+commit.59dbf8f1.Emscripten.clang"
  },
  "schemaVersion": "3.0.10",
  "updatedAt": "2019-06-04T19:40:20.955Z",
  "devdoc": {
    "methods": {}
  },
  "userdoc": {
    "methods": {}
  }
}